:100000000C9449010C94870F0C94600F0C94390FD9
:100010000C94120F0C9471010C9471010C94EB0E62
:100020000C9471010C9471010C94000C0C946F0CE5
:100030000C9471010C9471010C9471010C94710178
:100040000C9471010C9471010C9471010C94710168
:100050000C9471010C9471010C9471010C94A10E1B
:100060000C9471010C9471010C9471010C94710148
:100070000C9471010C9471010C9471010C94710138
:100080000C9471010C9471010C9471010C94710128
:100090000C9471010C9471010C9471010C94710118
:1000A0000C9471010C9471010C947101000000001A
:1000B000000000002A2B28000000000000000000C3
:1000C0000000000000000000000000002C9EB4A012
:1000D000A1A2A434A6A7A5AE362D3738271E1F200F
:1000E000212223242526B333B62EB7B89F848586D4
:1000F0008788898A8B8C8D8E8F9091929394959618
:100100009798999A9B9C9D2F3130A3AD3504050695
:100110000708090A0B0C0D0E0F10111213141516F7
:100120001718191A1B1C1DAFB1B0B5000000000054
:10013000240027002A002D003000000000020009E2
:100140000F0000030401000C00000000000000008C
:10015000000000000000000000080B000202020086
:10016000000904000001020200000524001001053E
:10017000240101010424020605240600010705816B
:100180000310004009040100020A000000070502F4
:100190000240000007058302400000040309041226
:1001A000010002EF020140412336800001010203F9
:1001B0000141726475696E6F204C4C43004172645A
:1001C00075696E6F204C656F6E6172646F0005011A
:1001D0000906A1018502050719E029E71500250197
:1001E00075019508810295017508810395067508CA
:1001F000150025730507190029738100C005010941
:1002000002A1010901A100850105091901290315B0
:10021000002501950375018102950175058103058E
:10022000010930093109381581257F750895038149
:1002300006C0C0000000002300260029002C002F6B
:1002400000040802011040804010204080408008D7
:100250000204018040201002011080102040402044
:1002600000000000250028002B002E0031000404AF
:10027000040404030405020202020403020202024F
:100280000606060606060404020202040400E10F44
:10029000B81411241FBECFEFDAE0DEBFCDBF11E0EE
:1002A000A0E0B1E0E6EDFCE202C005900D92A238BC
:1002B000B107D9F722E0A2E8B1E001C01D92AA3D42
:1002C000B207E1F711E0C8E4D1E004C02197FE01D4
:1002D0000E943315C734D107C9F70E9473110C94DB
:1002E0005E160C9400004F925F926F927F928F92F5
:1002F0009F92AF92BF92FF922091C2023091C302AF
:100300008217930708F043C02B0166247724852EBB
:10031000962EA72EBB24B82DA42F2091C802F42C12
:10032000222391F0E22FF0E0E49DD001E59DB00D95
:10033000F49DB00D1124FB2E289D40011124B92DF0
:10034000249F90011124A32FE091CE022091C90295
:100350003091CA025091CB02E51323C0FC01EE0F8D
:10036000FF1F8E0F9F1F820F931FE091CB02E80F9C
:10037000F92FF11DF082E091CC02E80FF92FF11D69
:10038000B0832091CD02820F911DFC01A083FF90CC
:10039000BF90AF909F908F907F906F905F904F90A5
:1003A0000895880F991F880F991F820F931FE80FD8
:1003B000F92FF11D1082D9CF96E0899FD001112429
:1003C000AB5BBD4F90967C936E935F9791E0919657
:1003D0009C939197E091B202F091B3029091B10297
:1003E000992339F0309751F0811108C08091610252
:1003F0000994309719F05C968C91FACF0895CF92BA
:10040000DF92EF92FF920F931F9396E0899FF00186
:100410001124EB5BFD4F11A2278D30A12130310556
:1004200051F178F02230310509F451C02330310503
:1004300009F452C01F910F91FF90EF90DF90CF9081
:1004400008956623B9F361E070E00E94DC012FB7E4
:10045000F8948091BE019091BF01A091C001B0912C
:10046000C1012FBF80939D0290939E02A0939F0293
:10047000B093A002DFCF9FB7F894C090BE01D09098
:10048000BF01E090C001F090C1019FBF00919D02AB
:1004900010919E0220919F023091A002C01AD10AB1
:1004A000E20AF30A0091AF021091B00230E020E0BE
:1004B0000C151D052E053F0550F462E070E01F91FC
:1004C0000F91FF90EF90DF90CF900C94DC016111C1
:1004D000B1CF63E070E0F3CF70E060E0F0CFFC01FB
:1004E0008091BD01882311F13FB7F89482E0809399
:1004F000E9002091F200822F90E01816190614F4FA
:1005000081E090E0882339F0289844E64093BC01CC
:100510004091F1004083222339F02091F200211113
:1005200003C02BE62093E8003FBF08958FEF9FEFB5
:1005300008954091AE015091AF012091AC013091EE
:10054000AD0142175307B4F49091E8009570E1F3C0
:100550009091E80092FD19C08093F1008091AE0166
:100560009091AF0101968F739927892B19F48EEF23
:100570008093E8008091AE019091AF010196909335
:10058000AF018093AE0181E0089580E00895DF928D
:10059000EF92FF920F931F93CF93DF93D82E8A0190
:1005A000EB017B01E40EF51ECE15DF0559F0D7FEF9
:1005B00012C0FE0184910E94990221968111F4CF0C
:1005C0000FEF1FEFC801DF91CF911F910F91FF90A7
:1005D000EF90DF9008958881EECF2FB7F894877061
:1005E0008093E9009091E800892F807295FF04C004
:1005F0009091F20080E4891B2FBF0895615030F084
:100600002091F100FC0120830196F8CF289884E620
:100610008093BC0108958091A40181110DC082E0F6
:100620008093A00184E08093A1011092A301109215
:10063000A20181E08093A40180EA91E008950F93E4
:100640001F93CF93DF931F92CDB7DEB782E08983EC
:1006500042E450E069E571E080E80E94C7020E9430
:100660000B03DC0112960D911C910115110589F007
:10067000D801ED91FC910280F381E02DBE016F5F06
:100680007F4FC801099597FD04C0F80100851185C9
:10069000ECCF89810F90DF91CF911F910F91089539
:1006A000CF93DF931F92CDB7DEB76983DC01ED9165
:1006B000FC910280F381E02D41E050E0BE016F5FCC
:1006C0007F4F09950F90DF91CF91089583E080933C
:1006D000E9008091F200882319F08AE38093E80012
:1006E000089583E00E94ED0290E00895CF93DF9398
:1006F0001F92CDB7DEB7FC018485958597FD08C0B4
:100700002FEF3FEF358724870F90DF91CF9108952A
:10071000CE0101960E946F02019719F4898190E041
:10072000F3CF8FEF9FEFF0CF0F931F93CF93DF9314
:100730001F92CDB7DEB78C01FC018485958597FFAC
:100740000BC0CE0101960E946F02019771F489815E
:1007500090E0F80195878487F801848595850F904E
:10076000DF91CF911F910F9108958FEF9FEFF1CF00
:10077000FC018485958597FD0BC09FB7F89482E0B6
:100780008093E9008091F2009FBF90E00196089568
:100790009FB7F89482E08093E9008091F2009FBFB8
:1007A00090E0089581508F3008F047C0E82FF0E0C6
:1007B000E452FC4F0C943315F903FD03EB03F103F2
:1007C000F5031D041D041D04000406040A040E04A0
:1007D00014041D041804809180008F77809380009A
:1007E0000895809180008F7DF9CF80918000877F70
:1007F000F5CF84B58F7784BD089584B58F7DFBCF09
:10080000809190008F778093900008958091900060
:100810008F7DF9CF80919000877FF5CF8091C000C8
:100820008F778093C00008958091C0008F7DF9CFAD
:100830008091C200877F8093C2000895CF93DF9399
:10084000282F30E0F901E65CFE4F8491F901EF5B5F
:10085000FD4FD491F901E259FD4FC491CC23A1F091
:1008600081110E94D203EC2FF0E0EE0FFF1FED5C30
:10087000FD4FA591B491EC91ED2381E090E009F456
:1008800080E0DF91CF91089580E090E0FACF862F4D
:100890000C941E041F93CF93DF93282F30E0F901AF
:1008A000E65CFE4F8491F901EF5BFD4FD491F901B5
:1008B000E259FD4FC491CC23A9F0162F81110E945B
:1008C000D203EC2FF0E0EE0FFF1FE05AFD4FA59191
:1008D000B4918FB7F894EC91111108C0D095DE2334
:1008E000DC938FBFDF91CF911F910895DE2BF8CF5E
:1008F000862F642F0C944A04CF93DF9390E0FC0181
:10090000EF5BFD4F249182599D4FFC018491882318
:10091000C9F090E0880F991FFC01E45DFE4FA5919E
:10092000B491FC01E05AFD4FC591D49161110DC005
:100930009FB7F8948C91209582238C9388812823EB
:1009400028839FBFDF91CF910895623051F49FB704
:10095000F8943C91822F809583238C93E8812E2BF1
:10096000EFCF8FB7F894EC912E2B2C938FBFEACF5B
:10097000862F642F0C947C046F927F928F929F92AB
:10098000AF92BF92CF92DF92EF92FF920F931F939D
:10099000CF93DF9381E08093B1028FB7F8944091B9
:1009A000BE015091BF016091C0017091C1018FBF24
:1009B0008091A1029091A202A091A302B091A40201
:1009C000481B590B6A0B7B0B8091AD029091AE02D4
:1009D000B0E0A0E084179507A607B70708F01DC18F
:1009E000C0E08091AB02C81760F4E091A702F091DB
:1009F000A802EC0FF11D62E080810E947C04CF5FB1
:100A0000F0CF712C812C912C540183948091AC02F5
:100A1000781608F05FC0072D10E0E091A902F09170
:100A2000AA02E00FF11F61E080810E947C04E09146
:100A3000A902F091AA02E00FF11F60E080810E94FC
:100A40004A04D501C401072C04C0880F991FAA1FAE
:100A5000BB1F0A94D2F76C017C01E094F094612CE6
:100A60008091AB026816F8F4C62DD0E0E091A702A1
:100A7000F091A802EC0FFD1F80810E941E042496B5
:100A8000CC0FDD1FCB5BDD4F892B41F48881998131
:100A90008C299D29998388836394E2CF88819981E9
:100AA0008E219F21F7CFE091A902F091AA02E00FD9
:100AB000F11F61E080810E944A048091A902909117
:100AC000AA02080F191F60E0F80180810E947C04CF
:100AD00073949CCFC5E4D2E0FE018FEF9FEF278D8A
:100AE00030A1232B21F4148E968F858F11A2369678
:100AF00022E0E138F20799F7F12C96E0D92E8091A7
:100B0000AB02F81608F050C0E12C0F2D10E0000FDA
:100B1000111F035B1D4F2091AC02E21608F042C08A
:100B2000F801608171810E2C02C0769567950A9458
:100B3000E2F7F29E900111242E0D311DE5E4F2E062
:100B400080E0458D568D2417350709F46AC08F5F04
:100B500036968A30B1F760FF23C0E5E4F2E090E01A
:100B600080E0448D411117C0E091A502F091A602EA
:100B7000E20FF31F4081D89EF001D99EF00D1124A1
:100B8000EB5BFD4F448F368F258F10A2178E61E0EF
:100B90000E94FF0105C0019636968A30910509F73B
:100BA000E394B9CFF394ABCF80E099A19111892F51
:100BB0002696F2E0C138DF07C1F79FB7F89440915D
:100BC000BE015091BF016091C0017091C1019FBFF2
:100BD0004093A1025093A2026093A3027093A402D7
:100BE0008823D9F0809166028823B9F0809164024D
:100BF00090916502019789F480916102DF91CF9114
:100C00001F910F91FF90EF90DF90CF90BF90AF902A
:100C10009F908F907F906F9008951092B10280E026
:100C2000EDCF6170B5CF3FB7F89480919C01909162
:100C30009D01A0919E01B0919F0126B5A89B05C082
:100C40002F3F19F00196A11DB11D3FBFBA2FA92F4B
:100C5000982F8827BC01CD01620F711D811D911D48
:100C600042E0660F771F881F991F4A95D1F70895B4
:100C7000CF92DF92EF92FF920F931F93CF93DF9368
:100C8000CDB7DEB729970FB6F894DEBF0FBECDBF44
:100C90008091C9029091CA02892B09F480C0C0904A
:100CA000CF02D090D002E090D102F090D2020E9408
:100CB00013066C157D058E059F0550F40E941306E2
:100CC0006093CF027093D0028093D1029093D202AE
:100CD0000E9413060091CF021091D0022091D10200
:100CE0003091D202601B710B820B930B6C327140FE
:100CF00081059105A0F2F8948091C4029091C502FB
:100D00009A838983E091C902F091CA02DF011196AA
:100D1000808189879091C002E091D302F091D40242
:100D20008091D502992309F449C09081982B988726
:100D30009081809589238F838F818C8388E08B833A
:100D400058856F8149853B812C8189819A815083A7
:100D500047FD252F3A952083262F39F0441F00C0E8
:100D600000006083000000C0F2CF38E04D91608346
:100D70000000019761F7F093D402E093D302498712
:100D80003B832C839A83898378940E941306609313
:100D9000CF027093D0028093D1029093D202299611
:100DA0000FB6F894DEBF0FBECDBFDF91CF911F917C
:100DB0000F91FF90EF90DF90CF9008959081982B46
:100DC00098879081809589238F838F818E8388E097
:100DD0008D8358856F8149853D812E8189819A81D6
:100DE000508347FD252F00C000C0208300C000C0F5
:100DF00000C000C000C060830000262F3A9541F07B
:100E0000441F000000C000C000C000C000C0E8CF08
:100E100038E04D9100C0608300C0019709F7F0935E
:100E2000D402E093D30249873D832E83ABCF8F92C8
:100E30009F92AF92BF92CF92DF92EF92FF926B019F
:100E40007C010E9413064B015C01C114D104E10432
:100E5000F104B9F00E941306681979098A099B09FF
:100E6000683E73408105910580F321E0C21AD108E4
:100E7000E108F10888EE880E83E0981EA11CB11CE1
:100E8000E4CFFF90EF90DF90CF90BF90AF909F9016
:100E90008F9008952F923F924F925F926F927F9220
:100EA0008F929F92AF92BF92CF92DF92EF92FF927A
:100EB0000F931F93CF93DF93CDB7DEB72A970FB66B
:100EC000F894DEBF0FBECDBF1C018B015A87498746
:100ED000812C912C540123E6422E512C612C712C33
:100EE000A985BA85CD90DC9011970D2C000CEE08E9
:100EF000FF0812962D913C91C901330FAA0BBB0B31
:100F000089839A83AB83BC83A985BA8514962D9176
:100F10003C91C901330FAA0BBB0B8D839E83AF831A
:100F2000B887D8012D913C91032E000C440B550B32
:100F30002C193D094E095F09C501B4010E94231512
:100F4000A30192010E94C814C20ED31EE41EF51E16
:100F50007601DD24CC24CC24DD24FF24F801228179
:100F60003381032E000C440B550B89819A81AB8190
:100F7000BC81281B390B4A0B5B0BC501B4010E94D5
:100F80002315A30192010E94C81489819A81AB8123
:100F9000BC81820F931FA41FB51FAC01BD01762F2A
:100FA000652F542F442766277727C42AD52AE62A97
:100FB000F72AD80114962D913C91032E000C440B76
:100FC000550B8D819E81AF81B885281B390B4A0B4B
:100FD0005B0BC501B4010E942315A30192010E947D
:100FE000C8148D819E81AF81B885280F391F4A1F93
:100FF0005B1FB701A601422BC1010E9473010E9431
:10100000380662E070E080E090E00E9417079FEFF2
:10101000891A990AA90AB90AA4E68A169104A104B0
:10102000B10409F05DCF2A960FB6F894DEBF0FBE6B
:10103000CDBFDF91CF911F910F91FF90EF90DF9087
:10104000CF90BF90AF909F908F907F906F905F9068
:101050004F903F902F9008957F928F929F92AF92E2
:10106000BF92CF92DF92EF92FF920F931F93CF9395
:10107000DF93C82E8B017A018091BD01811110C0D0
:101080008FEF9FEFDF91CF911F910F91FF90EF9026
:10109000DF90CF90BF90AF909F908F907F900895FA
:1010A0008091B20180FF05C08091E0008260809352
:1010B000E000CE2DDF2DD12C8AEFB82E8C2D87703D
:1010C000982E8C2D8072882E8C2D8074782E9AE329
:1010D000A92E209719F4DD2009F452C08C2D0E940E
:1010E000ED0281110AC0BA94BB2051F261E070E0B8
:1010F00080E090E00E941707ECCF8C171D0611F0DE
:101100000CF08C2F9FB7F8949092E9002091E800A2
:1011100025FD02C09FBFDDCF282F30E0C21BD30BBF
:10112000882029F08150A0F01092F100FBCFF80147
:10113000C7FC0AC0815050F041914093F100FACFB2
:1011400044914093F10031968150D0F7020F131F64
:10115000DD2021F0A092E800D12CDCCF8091E800C6
:1011600085FD07C0A092E800DD24D394209791F27A
:10117000F3CF209779F6772069F2A092E800CACFE2
:101180005D9884E68093B101C7017CCFCF93DF9354
:10119000EC0180911201882331F083E00E942C0839
:1011A0001816190634F081E090E09B838A8380E072
:1011B00090E0DF91CF9108950895CF92DF92EF9262
:1011C000FF920F931F93CF93DF936C01EB017B0191
:1011D000E40EF51E10E000E0CE15DF0581F0699108
:1011E0006D30D1F3D601ED91FC910190F081E02DAD
:1011F000C6010995892B19F00F5F1F4FEDCFC8016C
:10120000DF91CF911F910F91FF90EF90DF90CF90E2
:101210000895089590E080E00895DC01FB011296A6
:101220002C911297848195812817190641F4918198
:101230008081813A31F49D7F81E0913009F080E036
:1012400008958132E1F79B3029F482811F968C93B7
:1012500081E008959A3099F7828150968C93F8CF67
:10126000AF92BF92CF92DF92EF92FF920F931F93B4
:10127000CF93DF931F92CDB7DEB77C0169836A01FC
:10128000590141E050E0BE016F5F7F4FFC01838157
:101290000E942C088C0197FD0BC0F7018381A501EA
:1012A000B60180640E942C08080F191F97FD8C015D
:1012B000C8010F90DF91CF911F910F91FF90EF9098
:1012C000DF90CF90BF90AF900895DC01FB0188E4E0
:1012D000808389E4818384E482831D969C911D9799
:1012E0009F709F5B93831D968D919C9124E09695B2
:1012F00087952A95E1F78F708F5B848385E0089549
:10130000EF92FF920F931F93CF93DF93FB01208106
:10131000213871F52381223259F5DC0112964C9166
:10132000248135814217130619F5EC010B851C85C4
:10133000F12CE12C0115110589F0F801448155814A
:101340006281738180E80E94C7028F3F980749F04D
:10135000E80EF91ED8010D911C91ECCF81E08F872A
:10136000C701DF91CF911F910F91FF90EF900895EA
:1013700090E080E0F6CFCF93DF93CDB7DEB76997EB
:101380000FB6F894DEBF0FBECDBFFC01DB018C9120
:101390008F5F8C939E012D5F3F4F8DE0D9011D9291
:1013A0008A95E9F729E0298384E08A8391E09D8387
:1013B00083E08E832A8721E22B879C879D879F87E6
:1013C00022E2288B27E02B8B25E02C8B8E8B20E4D0
:1013D00030E0388F2F8B998F82818B83958586851E
:1013E000998B8A8B838180688D8B49E150E0BE01A7
:1013F0006F5F7F4F80E00E94C70269960FB6F89436
:10140000DEBF0FBECDBFDF91CF910895CF93DF93A5
:1014100080919301811167C081E080938601809360
:1014200087012CE831E030938901209388011092E4
:101430008B0110928A012EE331E0309383012093D7
:10144000820110928E0110928D01109290011092E3
:101450008F01809391018093920181EC80938C01A4
:101460000E940B03FC01818190918601482F490F56
:101470005527551F483051059CF5A281B38110971F
:1014800009F522E831E0338322832081209384010F
:101490008093850180918701820F8083209188014C
:1014A000A22FB09189018A2F821B8917C8F48181EC
:1014B0003D91C82FD0E0C050DF4F38838F5F8183CC
:1014C000F2CFD90118962D913C911997211531052C
:1014D000C1F722E831E019963C932E931897D5CFA7
:1014E00081E08093930182E891E0DF91CF910895AC
:1014F000CF93DF9300D000D0CDB7DEB790913A0202
:1015000099831A821B828C830E94060A24E030E0B1
:10151000AE014F5F5F4F61E00E9430090F900F9066
:101520000F900F90DF91CF910895CF93DF93EC014F
:101530000E94060A28E030E0AE0162E0DF91CF9120
:101540000C943009E0E2F2E01682178210861186D0
:1015500012861386148284E292E00C94950ADC01D0
:10156000683888F1685816968C911697861721F17D
:1015700017968C9117978617F9F018968C911897F3
:101580008617D1F019968C9119978617A9F01A969B
:101590008C911A97861781F01B968C911B97861752
:1015A00059F0FD01369690E080E02191211139C07B
:1015B0008A0F9B1FFC016683CD0104960E94950A49
:1015C00081E090E00895E62FF0E067FF11C0E05859
:1015D000F10921E030E001C0220FEA95EAF7149604
:1015E0008C911497822B14968C93149760E0BBCF48
:1015F000E455FF4F6491611109C081E090E01396BA
:101600009C938E93129790E080E0089567FFABCF94
:1016100014968C911497826014968C9314976F771C
:10162000A2CF01968630910509F0BFCFE6CFEF92A9
:10163000FF920F931F93CF938C01C62F0E94AF0A86
:101640007C01C838C8F0C858F80186E0CC2321F0E6
:101650009681C91301C01682815031968111F6CF4F
:10166000C80104960E94950AC7019927CF911F913E
:101670000F91FF90EF900895EC2FF0E0C7FF0FC09F
:10168000E058F10981E090E001C0880FEA95EAF79F
:101690008095F801948189238483C0E0D5CFE455F7
:1016A000FF4FC491CC2301F3C7FFCECFF801848153
:1016B0008D7F8483CF77C8CF90913A02892F826043
:1016C000981729F080933A0280E00E94780A80916E
:1016D0003A02982F9D7F81FF05C090933A0280E0E7
:1016E0000C94780A089581E080933A0280E00E9489
:1016F000780A10923A0280E00C94780ADC01ED91AD
:10170000FD918081ED91FD919081ED91FD916C9124
:1017100063708E2309F064609F2309F06860EBE931
:10172000FBE0E60FF11D659565956D936D917D91DB
:101730008D919D91099423C01AC012C016C010C08B
:101740001EC009C014C013C006C019C009C00DC016
:1017500007C00DC014C062507040804090400BC064
:10176000615070408040904006C06E5F01C06F5F66
:101770007F4F8F4F9F4F9E938E937E936E930895CE
:1017800080913B0290913C020C947E0B80913D0233
:1017900090913E020C947E0B80913F02909140020A
:1017A0000C947E0B80914102909142020C947E0B2E
:1017B00080914302909144020C947E0BFC010190B5
:1017C0000020E9F73197AF01481B590BBC0180E2BB
:1017D00092E00C94DD08CF93DF93682F82EC91E0C8
:1017E0000E945003EC0142E050E06EE671E082ECB2
:1017F00091E00E94C6088C0F9D1FDF91CF91089544
:101800001F920F920FB60F9211248F939F93809186
:10181000E1009091E100937F9093E10083FF0FC07E
:101820001092E90091E09093EB001092EC0092E3AB
:101830009093ED001092BD0198E09093F00082FF2C
:1018400022C093E09093E9009091F200992319F05F
:101850009AE39093E8009091B101992341F090911F
:10186000B10191509093B101911101C05D9A909195
:10187000BC01992341F09091BC0191509093BC011F
:10188000911101C0289A84FF18C08091E2008E7ED9
:1018900081608093E2008091E1008F7E8093E1007F
:1018A0008091B2018E7E80618093B2019F918F9171
:1018B0000F900FBE0F901F90189580FFF7CF80916B
:1018C000E2008E7E80618093E2008091E1008E7E56
:1018D0008093E1008091B2018E7E8160E5CF1F92FE
:1018E0000F920FB60F921124CF92DF92EF92FF92D8
:1018F0000F931F932F933F934F935F936F937F9318
:101900008F939F93AF93BF93EF93FF93CF93DF9307
:10191000CDB7DEB76C97DEBFCDBF1092E9008091E6
:10192000E80083FF25C068E0CE0145960E94FE02D4
:1019300082EF8093E8008D8987FF39C09091E8009D
:1019400090FFFCCF982F907609F034C19E894F8983
:10195000588D2F89F88C911131C0803861F58091B4
:10196000B3018093F1001092F1008EEF8093E800B4
:101970006C960FB6F894DEBF0FBECDBFDF91CF914E
:10198000FF91EF91BF91AF919F918F917F916F9157
:101990005F914F913F912F911F910F91FF90EF9089
:1019A000DF90CF900F900FBE0F901F9018959EEF75
:1019B0009093E800C7CF1092F100D5CF913059F441
:1019C0008111D3CF4130510581F68091B3018D7FD4
:1019D0008093B301CACF933049F48111C6CF41300F
:1019E000510519F68091B3018260F2CF953041F430
:1019F0008091E80080FFFCCF20682093E300B5CF02
:101A0000963009F0A9C00B8D1C8D22E01092E900E0
:101A10001092AF011092AE01F2122EC01092AD01E1
:101A20001092AC010E941F031F8299E09983FA82F1
:101A300091E09E8390EA98879AEF99872091AE0172
:101A40003091AF01275F3F4F3C832B838D831092F2
:101A5000E9001092AF011092AE011093AD01009316
:101A6000AC0149E050E0BE016F5F7F4F80E00E9413
:101A7000C7020E941F0379CF1093AD010093AC0100
:101A80000E940B03DC0112960D911C9101151105AA
:101A900009F451C1D801ED91FC910480F581E02D4C
:101AA000BE016B5E7F4FC8010995009709F03EC1EA
:101AB000F80100851185EACFF3E0FF120EC08F898F
:101AC000882309F440C0823061F440E860E18DEB86
:101AD00091E00E94AE0F811148CF81E28093EB002C
:101AE00047CF813029F440E86BE081EB91E0F1CF02
:101AF000833099F70E940B03DC011296ED90FC9065
:101B00008E010F5F1F4F6801E114F10479F0D701D6
:101B1000ED91FC910680F781E02DB801C701099590
:101B2000080F111DF701E084F184EECFD8011C925B
:101B3000F60101900020E9F73197BF016C197D098A
:101B400040E0C601C6CF6BE971E0FB01449150E073
:101B500080E80E94C70209CF973009F4BECF9830C1
:101B600021F481E08093F10000CF993009F0FDCE9F
:101B7000837009F0B2CFE1E0F1E081E031E096E37B
:101B80002191222371F08093E9003093EB00DF0173
:101B900011972C912093EC009093ED008F5F87308C
:101BA00079F78EE78093EA001092EA008F8980939C
:101BB000BD01DBCE8B8D9C8D1092E9001092AF01A0
:101BC0001092AE019093AD018093AC01898D81118B
:101BD00092C08E899D89913A49F4813209F07DCF76
:101BE00047E050E06BE071E080E0B3CF913209F064
:101BF00074CF833269F48F89988DB0E0A0E0809330
:101C0000070190930801A0930901B0930A01ADCE9A
:101C1000803269F48091E80082FFFCCF67E08BE0BE
:101C200091E00E94FE028BEF8093E8009ECE82320C
:101C300009F09BCE8F8980931201EEEFFFE785912B
:101C400094918B3F9C4D51F1E0E0F8E080910B01C5
:101C500090910C01A0910D01B0910E01803B944038
:101C6000A105B105F1F48091120180FD1AC0EE3F8B
:101C70008AE0F80789F587E797E791838083809169
:101C800060008093B00188E19BE00FB6F894A895BE
:101C9000809360000FBE9093600067CEEEEFFAE095
:101CA000D5CF808191818737974709F05ECEA8957F
:101CB000809160008861809360008091B001809382
:101CC0006000EE3F2AE0F20789F08091FE0A9091D1
:101CD000FF0A9183808349CE80819181873798075D
:101CE00051F29093FF0A8093FE0AC5CF1092FF0A2B
:101CF0001092FE0A3ACE0E940B03DC0112960D915F
:101D00001C910115110509F4E8CED801ED91FC9163
:101D10000190F081E02DBE016B5E7F4FC8010995F7
:101D2000811123CEF80100851185EBCF1816190615
:101D30000CF41BCED2CEF1E0FF12BECE6FE971E003
:101D400004CF1F920F920FB60F9211242F933F933F
:101D50008F939F93AF93BF938091BE019091BF01EA
:101D6000A091C001B091C10130919B0123E0230FEC
:101D70002D3758F50196A11DB11D20939B0180932D
:101D8000BE019093BF01A093C001B093C1018091A7
:101D90009C0190919D01A0919E01B0919F0101969F
:101DA000A11DB11D80939C0190939D01A0939E0164
:101DB000B0939F01BF91AF919F918F913F912F91D0
:101DC0000F900FBE0F901F90189526E8230F0296D4
:101DD000A11DB11DD2CF1F920F920FB60F921124E9
:101DE0002F933F934F935F936F937F938F939F9323
:101DF000AF93BF93EF93FF93E0911B01F0911C0110
:101E00000995FF91EF91BF91AF919F918F917F9134
:101E10006F915F914F913F912F910F900FBE0F9057
:101E20001F9018951F920F920FB60F9211242F93A7
:101E30003F934F935F936F937F938F939F93AF9352
:101E4000BF93EF93FF93E0911901F0911A01099567
:101E5000FF91EF91BF91AF919F918F917F916F9182
:101E60005F914F913F912F910F900FBE0F901F9058
:101E700018951F920F920FB60F9211242F933F9334
:101E80004F935F936F937F938F939F93AF93BF9382
:101E9000EF93FF93E0911701F09118010995FF91DD
:101EA000EF91BF91AF919F918F917F916F915F91D2
:101EB0004F913F912F910F900FBE0F901F9018954B
:101EC0001F920F920FB60F9211242F933F934F93AF
:101ED0005F936F937F938F939F93AF93BF93EF9392
:101EE000FF93E0911501F09116010995FF91EF9193
:101EF000BF91AF919F918F917F916F915F914F9122
:101F00003F912F910F900FBE0F901F9018951F9229
:101F10000F920FB60F9211242F933F934F935F931D
:101F20006F937F938F939F93AF93BF93EF93FF93A1
:101F3000E0911301F09114010995FF91EF91BF9188
:101F4000AF919F918F917F916F915F914F913F9151
:101F50002F910F900FBE0F901F901895EF92FF9248
:101F60000F931F93CF93DF93F82E192FE62E042F94
:101F700081E0860F880F0E94990283E00E949902F7
:101F8000CF2DD12FEC0EFD2EF11CCE15DF05B9F0B3
:101F900007FF13C0FE0184910E949902182F80E070
:101FA0000E949902812321968111EFCFDF91CF9179
:101FB0001F910F91FF90EF9008958881EDCF81E000
:101FC000F5CFCF93DF931092C5011092C40188EE34
:101FD00093E0A0E0B0E08093C6019093C701A09386
:101FE000C801B093C9018AE491E09093C301809342
:101FF000C2018FEF9FEF9093CF018093CE0110929B
:102000002302109222028CE591E0909321028093AA
:10201000200280911802811113C0109213021092B5
:1020200012028EEC91E090931502809314028FE2DD
:1020300090E0909317028093160281E0809318023B
:102040000E94060AFC01A385B485109709F02DC1F2
:1020500082E192E094878387858596852091160298
:1020600030911702820F931F9687858710923A024C
:1020700080913202811113C010922D0210922C0215
:102080008DEF91E090932F0280932E0286E390E0F3
:10209000909331028093300281E0809332020E945B
:1020A000060AFC01A385B485109709F009C18CE2EA
:1020B00092E09487838785859685209130023091C0
:1020C0003102820F931F968785871092C10210926A
:1020D000C8021092CF021092D0021092D102109238
:1020E000D20281E08093CE028093CB021092CC0288
:1020F00092E09093CD028093C00284E290E09093AE
:10210000C5028093C4020E9439159093CA0280933D
:10211000C902009709F4DEC024E2FC0111922A955D
:10212000E9F78CE090E09093C3028093C2028FE0C5
:1021300090E09093C7028093C6028091C1028823E9
:1021400041F061E08FE00E947C0460E08FE00E943B
:102150004A04EDE7F2E0E491F0E0EE0FFF1FE05AF1
:10216000FD4F859194919093D4028093D302E0E542
:10217000F2E0E491E093D50262E08EE00E947C04FC
:1021800062E080E10E947C04ECE7F2E0E491F0E0A0
:10219000EE0FFF1FED5CFD4FA591B491B093B5021A
:1021A000A093B402EFE4F2E044914093B802EEE76A
:1021B000F2E0E491F0E0EE0FFF1FED5CFD4FC59102
:1021C000D491D093B702C093B602E1E5F2E0E49176
:1021D000E093B9021092BB021092BC021092BD02B1
:1021E0001092BE022BE33FE1C9010197F1F79C91E8
:1021F000842F892391E009F490E08881E82309F095
:1022000092609093BA021092BF021092470210920D
:102210004B0210924A0210924C0288E691E0909391
:10222000460280934502E1E6F2E08DE992E01082F9
:1022300014821382158236968E179F07C1F785E2A6
:1022400091E09093A8028093A70281E291E090939D
:10225000AA028093A90283E08093AB0284E080937A
:10226000AC0288E291E09093A6028093A5028AE0F6
:1022700090E09093AE028093AD0284EF91E0909352
:10228000B0028093AF021092B3021092B202109289
:10229000A1021092A2021092A3021092A402109224
:1022A000B102DF91CF910895DC018D919C9111973E
:1022B0000097D1F782E192E08D939C93CDCEDC0123
:1022C0008D919C9111970097D1F78CE292E08D93BC
:1022D0009C93F1CE1092C5021092C4021092C302D8
:1022E0001092C20224CFCF93DF93CDB7DEB72C97E5
:1022F0000FB6F894DEBF0FBECDBF789484B5826070
:1023000084BD84B5816084BD85B5826085BD85B599
:10231000816085BD80916E00816080936E00109217
:102320008100809181008260809381008091810092
:102330008160809381008091800081608093800023
:1023400080919100826080939100809191008160E2
:1023500080939100809190008160809390008091A3
:10236000C10084608093C1008091C100826080932D
:10237000C1008091C10081608093C1008091C30041
:1023800081608093C3008091C00082608093C00010
:102390008091C20081608093C20080917A00846045
:1023A00080937A0080917A00826080937A00809195
:1023B0007A00816080937A0080917A0080688093AF
:1023C0007A001092BD011092B3011092B201809177
:1023D000D70081608093D70080EA8093D80089B5C8
:1023E000806189BD89B5826089BD09B400FEFDCFD9
:1023F00061E070E080E090E00E9417078091D800D3
:102400008F7C80618093D8008091E000807F8093F2
:10241000E0008091E1008E7E8093E1008DE080936A
:10242000E200559A209A8091C6029091C70297FDCA
:1024300008C061E00E947C0460E08091C6020E94B6
:102440004A0481E08093C1028FEF9FEF9093CF0108
:102450008093CE0162E08AE00E947C0462E081E029
:102460000E947C0462E080E00E947C041092B9012A
:1024700030E0632E30E0732E22242394312C02E3CB
:1024800010E05CE5A52E5BE0B52E63E7862E6BE0E1
:10249000962E5524539480E00E941E04892B79F4D3
:1024A0008091BA019091BB010196833091050CF0A7
:1024B000A7C09093BB018093BA015092B90180915B
:1024C000BA019091BB018130910509F060C1188774
:1024D0000F831A8619861C861B861A8219821C8312
:1024E0000B831E821D82F12CE12C8F81498550E0E7
:1024F00070E060E0762F652F542F4427682B8B8582
:10250000482BC7010E9473018FEFE81AF80A8CE08C
:10251000E816F10451F790921A0180921901809106
:1025200069008F73806880936900EB9A8091BF0285
:10253000823008F06AC0F89484EB92E00E947E0B2F
:10254000C090BB02D090BC02E090BD02F090BE02F1
:102550007894C092B501D092B601E092B701F092A2
:10256000B80180911D0190911E01A0911F01B091B1
:1025700020018C159D05AE05BF0589F08C159D05C4
:10258000AE05BF050CF043C081E00E94780AC092FE
:102590001D01D0921E01E0921F01F09220010E94C5
:1025A000BC048093B4018133A1F560E880E292E03D
:1025B0000E94AF0A63E680E292E00E94AF0AAE0199
:1025C0004F5F5F4FBE01695F7F4F90E080E00E94E8
:1025D0004A070E94A20A0E9438068091B901882306
:1025E00041F06CE271E080E090E00E9417071092E9
:1025F000B9016114710409F44ECF0E94000049CF63
:102600003092BB012092BA0158CFF89499CF8FEF46
:10261000BCCF823399F460E880E292E00E94AF0A76
:1026200066E780E292E00E94AF0AAE014F5F5F4F23
:10263000BE01695F7F4F81E090E0C9CF833399F499
:1026400060E880E292E00E94AF0A65E780E292E0F3
:102650000E94AF0AAE014F5F5F4FBE01695F7F4FBF
:1026600082E090E0B4CF8433C1F460E880E292E08D
:102670000E94AF0A65E880E292E00E94AF0A6DE630
:1026800080E292E00E94AF0AAE014F5F5F4FBE0151
:10269000695F7F4F83E090E09ACF853369F481E7EB
:1026A00091E00E94DE0BAE014F5F5F4FBE01695F9C
:1026B0007F4F84E090E0EDC0863369F481E791E0DC
:1026C0000E94DE0BAE014F5F5F4FBE01695F7F4F1F
:1026D00085E090E0DEC0873369F481E791E00E94F5
:1026E000DE0BAE014F5F5F4FBE01695F7F4F86E03B
:1026F00090E0CFC0883369F481E791E00E94DE0B5F
:10270000AE014F5F5F4FBE01695F7F4F87E090E092
:10271000C0C0893371F466E180E292E00E94170B39
:10272000AE014F5F5F4FBE01695F7F4F88E090E071
:10273000B0C0813469F481E791E00E94DE0BAE0104
:102740004F5F5F4FBE01695F7F4F89E090E0A1C09E
:10275000823469F481E791E00E94DE0BAE014F5FA5
:102760005F4FBE01695F7F4F8AE090E092C0833483
:1027700009F031CF81E791E00E94DE0BAE014F5F9F
:102780005F4FBE01695F7F4F8BE090E082C0029790
:1027900009F023CF18861F821A8709871C861B869B
:1027A0001A8219821C821B821E830D83F12CE12C5C
:1027B0008F81498550E070E060E0762F652F542FBF
:1027C0004427682B8B85482BC7010E9473018FEF2C
:1027D000E81AF80A8CE0E816F10451F70E9438066E
:1027E000B0921A01A0921901809169008F738068DC
:1027F00080936900EB9A8091BF02823008F04CC050
:10280000F89484EB92E00E947E0BC090BB02D090C3
:10281000BC02E090BD02F090BE027894C092B50177
:10282000D092B601E092B701F092B80180911D01FB
:1028300090911E01A0911F01B09120018C159D0562
:10284000AE05BF0581F08C159D05AE05BF0534F5BD
:1028500081E00E94780AC0921D01D0921E01E09290
:102860001F01F09220010E94BC048093B4018133C7
:10287000B9F487E791E00E94DE0B8091B4010E94D9
:10288000EB0BAE014F5F5F4FBE01695F7F4F90E082
:1028900080E00E944A079FCEF894B7CF8FEFD9CF40
:1028A000823389F48BE791E00E94DE0B8091B401C2
:1028B0000E94EB0BAE014F5F5F4FBE01695F7F4F20
:1028C00081E090E0E6CF8333A9F440E050E062E39A
:1028D00070E083E090E00E9473018BE791E00E943A
:1028E000DE0BAE014F5F5F4FBE01695F7F4F82E03D
:1028F00090E0CFCF8433A9F440E050E062E370E091
:1029000084E090E00E9473018BE791E00E94DE0B6F
:10291000AE014F5F5F4FBE01695F7F4F83E090E084
:10292000B8CF853319F48BE791E0BBCE863319F429
:102930008BE791E0C5CE873319F48BE791E0CFCEDA
:10294000883319F48BE791E0D9CE893309F4E3CECB
:10295000813419F48BE791E0F0CE823419F48BE7DF
:1029600091E0FACE833409F036CE8BE791E004CFC4
:102970008091C9029091CA020E94D5158091C60229
:102980009091C70297FD03C060E00C947C04089509
:10299000052E97FB1EF400940E94DF1457FD07D00C
:1029A0000E94F21407FC03D04EF40C94DF145095EF
:1029B0004095309521953F4F4F4F5F4F089590952B
:1029C0008095709561957F4F8F4F9F4F08950E941E
:1029D0001415A59F900DB49F900DA49F800D911D7F
:1029E00011240895A1E21A2EAA1BBB1BFD010DC0E4
:1029F000AA1FBB1FEE1FFF1FA217B307E407F507AF
:102A000020F0A21BB30BE40BF50B661F771F881F8A
:102A1000991F1A9469F760957095809590959B0120
:102A2000AC01BD01CF010895A29FB001B39FC001C9
:102A3000A39F700D811D1124911DB29F700D811DEA
:102A40001124911D0895DB018F939F930E94E71439
:102A5000BF91AF91A29F800D911DA39F900DB29F3A
:102A6000900D11240895EE0FFF1F0590F491E02DB5
:102A700009940F931F93CF93DF938230910510F445
:102A800082E090E0E091D802F091D90230E020E0BD
:102A9000B0E0A0E0309799F42115310509F44AC05F
:102AA000281B390B24303105D8F58A819B816115AB
:102AB000710589F1FB0193838283FE0111C040817E
:102AC00051810281138148175907E0F048175907CF
:102AD00099F4109761F012960C93129713961C9329
:102AE0003296CF01DF91CF911F910F9108950093FE
:102AF000D8021093D902F4CF2115310551F04217B5
:102B0000530738F0A901DB019A01BD01DF01F8018B
:102B1000C1CFEF01F9CF9093D9028093D802CDCFE6
:102B2000FE01E20FF31F8193919322503109398303
:102B30002883D7CF2091D6023091D702232B41F49E
:102B400020913601309137013093D7022093D6027D
:102B500020913401309135012115310541F42DB713
:102B60003EB74091380150913901241B350BE0915B
:102B7000D602F091D702E217F307A0F42E1B3F0B09
:102B80002817390778F0AC014E5F5F4F24173507DF
:102B900048F04E0F5F1F5093D7024093D6028193A7
:102BA00091939FCFF0E0E0E09CCFCF93DF9300972D
:102BB000E9F0FC01329713821282A091D802B09101
:102BC000D902ED0130E020E01097A1F4208131819D
:102BD000820F931F2091D6023091D7022817390710
:102BE00009F061C0F093D702E093D602DF91CF9154
:102BF0000895EA01CE17DF07E8F54A815B819E015F
:102C000041155105B1F7E901FB83EA8349915991D7
:102C1000C40FD51FEC17FD0761F4808191810296E6
:102C2000840F951FE90199838883828193819B8317
:102C30008A83F0E0E0E012968D919C9113970097C3
:102C4000B9F52D913C911197CD010296820F931FFA
:102C50002091D6023091D7022817390739F63097DC
:102C600051F51092D9021092D802B093D702A093D6
:102C7000D602BCCFD383C28340815181840F951F7C
:102C8000C817D90761F44E5F5F4F88819981480F5B
:102C9000591F518340838A819B81938382832115AD
:102CA000310509F0B0CFF093D902E093D8029ECF5E
:102CB000FD01DC01C0CF13821282D7CF11E0C8E43E
:102CC000D1E004C0FE010E9433152196C934D1071A
:062CD000C9F7F894FFCFE4
:102CD60000C18081000000FFFFFFFF00E10000004F
:102CE600000000DC08DC08DC08DC08DC0819FCFF56
:102CF600FF06070809020304313233343837363504
:102D0600394142430000DA028000000000000D094C
:102D1600BB0980096509000000005003C60871035D
:102D26006603B8037603940300000000170BDD0862
:102D36000A09090900000000B804780447040D0ACE
:102D4600004D4F44453000304631004D4F4445312B
:022D560000007B
:00000001FF
